:100000000C942A000C9447000C9447000C94470071
:100010000C9447000C9447000C9447000C94D603B2
:100020000C9447000C94A3030C9447000C944700D5
:100030000C9447000C9447000C9447000C94470024
:100040000C9447000C9447000C9447000C94470014
:100050000C94470011241FBECFE5D8E0DEBFCDBF12
:1000600010E0A0E6B0E0E0E7F4E102C005900D92F8
:10007000AE36B107D9F710E0AEE6B0E001C01D9290
:10008000A537B107E1F70E9458070C94360A0C9483
:100090000000DF93CF930F92CDB7DEB78983E2E5FF
:1000A000F0E01082ECE5F0E089818083A7E3B0E026
:1000B000E7E3F0E0808188608C93E3E5F0E08AE696
:1000C00080830F90CF91DF910895DF93CF9300D07D
:1000D00000D00F92CDB7DEB789836A834B838A81C4
:1000E000883008F0D5C08981843008F0D1C089817A
:1000F000282F30E03D832C838C819D8181309105B8
:1001000009F443C02C813D81223031052CF48C81CF
:100110009D81009771F0BCC02C813D81223031055A
:1001200009F45FC08C819D818330910509F485C0FD
:10013000AFC08B818130A1F4AAE3B0E0EAE3F0E044
:100140008081482F8A81282F30E081E090E0022EC4
:1001500002C0880F991F0A94E2F7842B8C9398C0F1
:10016000AAE3B0E0EAE3F0E08081482F8A81282FFB
:1001700030E081E090E0022E02C0880F991F0A94BF
:10018000E2F7809584238C9383C08B818130A1F426
:10019000A7E3B0E0E7E3F0E08081482F8A81282FD1
:1001A00030E081E090E0022E02C0880F991F0A948F
:1001B000E2F7842B8C936CC0A7E3B0E0E7E3F0E0B8
:1001C0008081482F8A81282F30E081E090E0022E44
:1001D00002C0880F991F0A94E2F7809584238C93BC
:1001E00057C08B818130A1F4A4E3B0E0E4E3F0E0F8
:1001F0008081482F8A81282F30E081E090E0022E14
:1002000002C0880F991F0A94E2F7842B8C9340C098
:10021000A4E3B0E0E4E3F0E08081482F8A81282F56
:1002200030E081E090E0022E02C0880F991F0A940E
:10023000E2F7809584238C932BC08B818130A1F4CD
:10024000A1E3B0E0E1E3F0E08081482F8A81282F2C
:1002500030E081E090E0022E02C0880F991F0A94DE
:10026000E2F7842B8C9314C0A1E3B0E0E1E3F0E06B
:100270008081482F8A81282F30E081E090E0022E93
:1002800002C0880F991F0A94E2F7809584238C930B
:100290000F900F900F900F900F90CF91DF910895D6
:1002A000DF93CF9300D000D00F92CDB7DEB7898314
:1002B0006A834B838A81883008F0D5C08981843075
:1002C00008F0D1C08981282F30E03D832C838C81B8
:1002D0009D818130910509F443C02C813D812230FC
:1002E00031052CF48C819D81009771F0BCC02C816C
:1002F0003D812230310509F45FC08C819D818330BE
:10030000910509F485C0AFC08B818130A1F4ABE3C6
:10031000B0E0EBE3F0E08081482F8A81282F30E0C5
:1003200081E090E0022E02C0880F991F0A94E2F744
:10033000842B8C9398C0ABE3B0E0EBE3F0E08081DA
:10034000482F8A81282F30E081E090E0022E02C001
:10035000880F991F0A94E2F7809584238C9383C0B9
:100360008B818130A1F4A8E3B0E0E8E3F0E0808184
:10037000482F8A81282F30E081E090E0022E02C0D1
:10038000880F991F0A94E2F7842B8C936CC0A8E322
:10039000B0E0E8E3F0E08081482F8A81282F30E048
:1003A00081E090E0022E02C0880F991F0A94E2F7C4
:1003B000809584238C9357C08B818130A1F4A5E371
:1003C000B0E0E5E3F0E08081482F8A81282F30E01B
:1003D00081E090E0022E02C0880F991F0A94E2F794
:1003E000842B8C9340C0A5E3B0E0E5E3F0E080818E
:1003F000482F8A81282F30E081E090E0022E02C051
:10040000880F991F0A94E2F7809584238C932BC060
:100410008B818130A1F4A2E3B0E0E2E3F0E08081DF
:10042000482F8A81282F30E081E090E0022E02C020
:10043000880F991F0A94E2F7842B8C9314C0A2E3CF
:10044000B0E0E2E3F0E08081482F8A81282F30E09D
:1004500081E090E0022E02C0880F991F0A94E2F713
:10046000809584238C930F900F900F900F900F9096
:10047000CF91DF910895DF93CF9300D000D00F92FA
:10048000CDB7DEB78A836B8319828B81883008F001
:1004900084C08A81843008F080C08A81282F30E0AF
:1004A0003D832C834C815D814130510579F18C81F4
:1004B0009D818230910534F42C813D8121153105D7
:1004C00069F06BC04C815D8142305105B9F18C817E
:1004D0009D818330910509F449C05FC0E9E3F0E0F4
:1004E0008081282F30E08B81882F90E0A90102C005
:1004F000559547958A95E2F7CA01817090708823D7
:1005000019F081E0898349C0198247C0E6E3F0E031
:100510008081282F30E08B81882F90E0A90102C0D4
:10052000559547958A95E2F7CA01817090708823A6
:1005300019F081E0898331C019822FC0E3E3F0E034
:100540008081282F30E08B81882F90E0A90102C0A4
:10055000559547958A95E2F7CA0181709070882376
:1005600019F081E0898319C0198217C0E0E3F0E037
:100570008081282F30E08B81882F90E0A90102C074
:10058000559547958A95E2F7CA0181709070882346
:1005900019F081E0898301C0198289810F900F9041
:1005A0000F900F900F90CF91DF910895DF93CF932D
:1005B00000D000D0CDB7DEB789836A8389818430CB
:1005C00090F58981282F30E03C832B838B819C819F
:1005D00081309105D1F02B813C81223031052CF402
:1005E0008B819C81009761F01EC02B813C81223061
:1005F000310581F08B819C818330910581F013C09E
:10060000EAE3F0E08A8180830EC0E7E3F0E08A81CC
:10061000808309C0E4E3F0E08A81808304C0E1E3E1
:10062000F0E08A8180830F900F900F900F90CF9110
:10063000DF910895DF93CF9300D000D0CDB7DEB720
:1006400089836A838981843090F58981282F30E0FD
:100650003C832B838B819C8181309105D1F02B8150
:100660003C81223031052CF48B819C81009761F014
:100670001EC02B813C812230310581F08B819C8111
:100680008330910581F013C0EBE3F0E08A81808331
:100690000EC0E8E3F0E08A81808309C0E5E3F0E082
:1006A0008A81808304C0E2E3F0E08A8180830F9036
:1006B0000F900F900F90CF91DF910895DF93CF931C
:1006C00000D000D0CDB7DEB78A8319828A8184300A
:1006D00090F58A81282F30E03C832B838B819C818D
:1006E00081309105D1F02B813C81223031052CF4F1
:1006F0008B819C81009761F01EC02B813C81223050
:10070000310581F08B819C818330910581F013C08C
:10071000E9E3F0E0808189830EC0E6E3F0E08081C8
:10072000898309C0E3E3F0E08081898304C0E0E3CA
:10073000F0E08081898389810F900F900F900F9056
:10074000CF91DF9108951F920F920FB60F9211244F
:100750002F933F934F935F936F937F938F939F93C9
:10076000AF93BF93EF93FF93DF93CF93CDB7DEB7F4
:1007700080916E0090916F00009729F0E0916E00DB
:10078000F0916F000995CF91DF91FF91EF91BF91AB
:10079000AF919F918F917F916F915F914F913F9119
:1007A0002F910F900FBE0F901F9018951F920F92D0
:1007B0000FB60F9211242F933F934F935F936F9334
:1007C0007F938F939F93AF93BF93EF93FF93DF93A9
:1007D000CF93CDB7DEB780916E0090916F000097F8
:1007E00029F0E0916E00F0916F000995CF91DF91B3
:1007F000FF91EF91BF91AF919F918F917F916F91F9
:100800005F914F913F912F910F900FBE0F901F90CE
:100810001895DF93CF9300D0CDB7DEB79A83898345
:10082000ACE4B0E0E981FA818081918111969C93DA
:100830008E93AFE4B0E0EFE4F0E080818C608C93C5
:10084000AEE4B0E0EEE4F0E08081982F987FE9819B
:10085000FA818481892B8C93E981FA8185818823AF
:1008600029F4E9E5F0E084E080831CC0E981FA81A5
:1008700085818230B9F4AEE4B0E0EEE4F0E080814E
:1008800088608C93A9E5B0E0E9E5F0E080818061C3
:100890008C93AAE4B0E0E981FA8182819381119678
:1008A0009C938E930F900F90CF91DF910895DF93DB
:1008B000CF93CDB7DEB7EFE4F0E01082EEE4F0E0E6
:1008C0001082ECE4F0E011821082E9E5F0E01082A1
:1008D000CF91DF910895DF93CF9300D0CDB7DEB7EE
:1008E0009A83898389819A8190936F0080936E00A7
:1008F0000F900F90CF91DF910895DF93CF9300D0A9
:100900000F92CDB7DEB79A838983A0E2B0E0E98188
:10091000FA8181818C93E6E5F0E084E08083E1E276
:10092000F0E01082E2E2F0E08081A2E2B0E0E98152
:10093000FA818081882F90E0880F991F8C930F9007
:100940000F900F90CF91DF910895DF93CF93CDB7A4
:10095000DEB7E6E5F0E084EA8083E6E5F0E080815A
:100960008823DCF7CF91DF910895DF93CF93CDB744
:10097000DEB7E6E5F0E084E98083CF91DF9108956A
:10098000DF93CF930F92CDB7DEB78983E3E2F0E038
:1009900089818083E6E5F0E084E88083E6E5F0E0A5
:1009A00080818823DCF70F90CF91DF910895DF934A
:1009B000CF93CDB7DEB7E6E5F0E084EC8083E6E5E3
:1009C000F0E080818823DCF7E3E2F0E08081CF91E2
:1009D000DF910895DF93CF93CDB7DEB7E6E5F0E082
:1009E00084E88083E6E5F0E080818823DCF7E3E2B9
:1009F000F0E08081CF91DF910895DF93CF930F9244
:100A0000CDB7DEB7E1E2F0E08081887F898389811C
:100A10000F90CF91DF910895DF93CF9300D000D056
:100A2000CDB7DEB79C838B831A821982EBE2F0E0AC
:100A300082E08083EAE2F0E088E18083EB81FC8160
:100A40008081873039F4AAE2B0E0EAE2F0E0808108
:100A500084608C93A0E4B0E0E0E4F0E08081806802
:100A60008C93A0E4B0E0E0E4F0E08081282F297FBF
:100A7000EB81FC818081882F90E0880F991F822B69
:100A80008C93A0E4B0E0E0E4F0E08081282F277FA1
:100A9000EB81FC818281882F90E0880F991F880F5D
:100AA000991F880F991F822B8C93A0E4B0E0E0E49B
:100AB000F0E08081282F2F7CEB81FC818181882FC1
:100AC00090E082959295907F9827807F9827822B3F
:100AD0008C93EB81FC8183819481A581B681880F01
:100AE000991FAA1FBB1F880F991FAA1FBB1F880F22
:100AF000991FAA1FBB1F9C01AD0180E092E1AAE7EC
:100B0000B0E0BC01CD010E94140ADA01C9010197CD
:100B10009A838983E0E4F0E089819A81892F99277B
:100B20008083E9E2F0E0898180830F900F900F903D
:100B30000F90CF91DF910895DF93CF930F92CDB7B0
:100B4000DEB78983EBE2F0E08081882F90E080724D
:100B500090700097B9F3ECE2F0E0898180830F9008
:100B6000CF91DF910895DF93CF93CDB7DEB7EBE25E
:100B7000F0E080818823DCF7ECE2F0E08081CF9127
:100B8000DF910895DF93CF9300D00F92CDB7DEB7FA
:100B90009B838A8319820EC08981282F30E08A8145
:100BA0009B81FC01E20FF31F80810E949C058981DB
:100BB0008F5F89838981282F30E08A819B81FC01A6
:100BC000E20FF31F8081882339F70F900F900F9069
:100BD000CF91DF9108950F931F93DF93CF9300D0B0
:100BE0000F92CDB7DEB79B838A8319828981282F24
:100BF00030E08A819B818C01020F131F0E94B30594
:100C0000F80180830FC089818F5F89838981282FB4
:100C100030E08A819B818C01020F131F0E94B30573
:100C2000F80180838981282F30E08A819B81FC0133
:100C3000E20FF31F8081833231F78981282F30E062
:100C40008A819B81FC01E20FF31F10820F900F90AD
:100C50000F90CF91DF911F910F910895DF93CF9364
:100C6000CDB7DEB783E063E041E00E94650083E03A
:100C700063E040E00E945001CF91DF910895DF933F
:100C8000CF93CDB7DEB783E063E041E00E9450012F
:100C9000CF91DF910895DF93CF93CDB7DEB783E097
:100CA00063E040E00E945001CF91DF910895DF930F
:100CB000CF93CDB7DEB781E061E041E00E946500EF
:100CC00081E062E041E00E94650081E061E040E097
:100CD0000E94500181E062E040E00E945001CF910B
:100CE000DF910895DF93CF9300D000D0CDB7DEB76A
:100CF00089836A838981282F30E03C832B838B8111
:100D00009C8181309105F9F02B813C8122303105A5
:100D100079F08B819C81009701F581E061E040E0F2
:100D20000E94500181E062E040E00E94500115C045
:100D300081E061E040E00E94500181E062E041E03A
:100D40000E9450010AC081E061E041E00E94500130
:100D500081E062E040E00E9450018A810E944900E7
:100D60000F900F900F900F90CF91DF910895DF9328
:100D7000CF9300D000D0CDB7DEB79A8389836B8341
:100D80000E94A5040E94FD04883011F01C8228C036
:100D900089819A8180709770880F892F881F990B9D
:100DA0009195806A0E94C0040E94FD04883111F070
:100DB0001C8216C089810E94C0040E94FD048832F2
:100DC00011F01C820DC08B810E94C0040E94FD04A2
:100DD000883211F01C8204C00E94B50481E08C832B
:100DE0008C810F900F900F900F90CF91DF9108950D
:100DF000DF93CF9300D000D00F92CDB7DEB79A83A8
:100E000089837C836B830E94A5040E94FD04883043
:100E100011F01D8244C089819A8180709770880F7B
:100E2000892F881F990B9195806A0E94C0040E94A7
:100E3000FD04883111F01D8232C089810E94C004F6
:100E40000E94FD04883211F01D8229C00E94A50471
:100E50000E94FD04803111F01D8221C089819A8198
:100E600080709770880F892F881F990B9195816AE0
:100E70000E94C0040E94FD04803411F01D820FC046
:100E80000E94EA04EB81FC8180830E94FD04883586
:100E900011F01D8204C00E94B50481E08D838D8114
:100EA0000F900F900F900F900F90CF91DF910895BA
:100EB000DF93CF93CDB7DEB76D970FB6F894DEBF53
:100EC0000FBECDBFAFE5B0E0EFE5F0E08081806818
:100ED0008C93CE0140969A8F898FE0E6F0E0FC8FEC
:100EE000EB8FF7E0FD8FEB8DFC8D00808B8D9C8D63
:100EF00001969C8F8B8FE98DFA8D0082898D9A8D5A
:100F000001969A8F898F9D8D91509D8FED8DEE2347
:100F100051F7CE0140960E940C0582E08F8B84E051
:100F2000888FCE0147960E947D040E9457060E943A
:100F30002E060E94B3058F3FE1F7CE0106969E0173
:100F4000255F3F4FB9019E012F5F3F4FA9010E94CE
:100F5000DF079E012A5F3F4FAE01455F5F4FCE0125
:100F60000196B9010E94AB08E8CF0F931F93DF935E
:100F7000CF9300D00F92CDB7DEB79B838A831982BF
:100F80000FC08981282F30E08A819B818C01020F5C
:100F9000131F0E94B305F801808389818F5F8983C5
:100FA0008981853070F30E94B3058D33E1F70F908E
:100FB0000F900F90CF91DF911F910F910895DF93C4
:100FC000CF93CDB7DEB729970FB6F894DEBF0FBE2B
:100FD000CDBF9B838A837D836C835F834E838A81AD
:100FE0009B810E94B5078C819D810E94B507198263
:100FF0001EC08981282F30E08A819B81FC01E20F8D
:10100000F31F40818981282F30E08C819D81FC0174
:10101000E20FF31F8081481739F481E0809370005C
:1010200089818F5F898303C01092700003C089811A
:101030008530F8F280E20E949C0580917000282F94
:1010400030E03987288788859985009701F12885C0
:1010500039852130310539F580E10E949C051092D7
:1010600070008A819B810E9461090E9456090E943A
:10107000B3058E3EE1F78E819F810E94B5078E8178
:101080009F812A813B81B9010E945C080CC081E0EC
:101090000E949C058A819B812C813D814E815F81CC
:1010A000B9010E94DF0729960FB6F894DEBF0FBE84
:1010B000CDBFCF91DF910895DF93CF9300D000D0C3
:1010C0000F92CDB7DEB79B838A837D836C831982B1
:1010D00014C08981882F90E08E5C934FAC01898188
:1010E000282F30E08A819B81280F391FCA01B9015E
:1010F0000E94F80689818F5F89838981853048F352
:1011000019821EC08981282F30E08A819B81FC01D1
:10111000E20FF31F40818981282F30E08C819D816F
:10112000FC01E20FF31F8081481739F481E08093BE
:10113000710089818F5F898303C01092710003C0A1
:1011400089818530F8F20F900F900F900F900F90DB
:10115000CF91DF910895DF93CF93CDB7DEB72A9774
:101160000FB6F894DEBF0FBECDBF9A8389837C8310
:101170006B835E834D8389819A812B813C81B90188
:101180000E945C080E94B3058535E1F780917100EB
:10119000282F30E03A87298789859A85009709F4B6
:1011A00045C029853A852130310509F076C087E1AF
:1011B0000E949C051092720080917400282F30E0EC
:1011C00038872F838F8198858B32910531F02F815D
:1011D00038852D323105B9F060C00E948A090E941D
:1011E00056090E94B3058E3EE1F789819A810E94DB
:1011F000B50789819A812B813C814D815E81B9013E
:101200000E94AB084AC08B819C812D813E8149811F
:101210005A81B9010E94DF0789819A812B813C8123
:101220004D815E81B9010E94AB0837C086E10E9402
:101230009C05809172008F5F809372008091720094
:10124000882F90E083309105B9F4109272000E94CB
:10125000AD090E9456090E94B3058E3EE1F78981CF
:101260009A810E94B50789819A812B813C814D81A9
:101270005E81B9010E94AB080E94B3058E3EE1F782
:1012800089819A810E94B50789819A812B813C814D
:101290004D815E81B9010E94AB082A960FB6F89481
:1012A000DEBF0FBECDBFCF91DF910895DF93CF9307
:1012B000CDB7DEB70E94B30580937400CF91DF9164
:1012C0000895DF93CF9300D00F92CDB7DEB79B8305
:1012D0008A83198216C08981882F90E08E5C934F93
:1012E000AC018981282F30E08A819B81FC01E20FCB
:1012F000F31F2081CA01622F0E94B70689818F5F88
:1013000089838981853038F30F900F900F90CF91AA
:10131000DF910895DF93CF93CDB7DEB782E06FEF13
:101320000E9472068FE090E00E94C80980E060E0B1
:101330000E94720683E090E00E94C80981E06FEF8E
:101340000E9472068FE090E00E94C80980E060E091
:101350000E947206CF91DF910895DF93CF93CDB7AE
:10136000DEB70E943F068CE390E00E94C8090E940D
:101370004B06CF91DF910895DF93CF93CDB7DEB7C2
:10138000809173008F5F80937300CF91DF910895F8
:10139000DF93CF93CDB7DEB72D970FB6F894DEBFAE
:1013A0000FBECDBF98878F8310927300CE01019638
:1013B0009A878987E7E6F0E0FC87EB87F6E0FD8710
:1013C000EB85FC8500808B859C8501969C878B87AF
:1013D000E985FA85008289859A8501969A878987A9
:1013E0009D8591509D87ED85EE2351F7CE010196A5
:1013F0000E9409048CEB99E00E946B0480917300B9
:10140000282F30E08F819885880F991F281739077A
:10141000A8F30E9457042D960FB6F894DEBF0FBEB6
:10142000CDBFCF91DF910895A1E21A2EAA1BBB1B5D
:10143000FD010DC0AA1FBB1FEE1FFF1FA217B307A0
:10144000E407F50720F0A21BB30BE40BF50B661FB6
:10145000771F881F991F1A9469F76095709580957A
:1014600090959B01AC01BD01CF010895F894FFCF89
:0E1470000302008025000000000000030000C1
:00000001FF
